:020000040000fa
:080000000002040000000000f2
:020000040000fa
:04000800e20400000e
:020000040000fa
:04000c00e20400000a
:020000040000fa
:04001000e204000006
:020000040000fa
:04001400e204000002
:020000040000fa
:04001800e2040000fe
:020000040000fa
:04001c00e2040000fa
:020000040000fa
:04002000e2040000f6
:020000040000fa
:04002400e2040000f2
:020000040000fa
:04002800e2040000ee
:020000040000fa
:04002c00e2040000ea
:020000040000fa
:04003000e2040000e6
:020000040000fa
:040034002a0300009b
:020000040000fa
:04003800bc04000004
:020000040000fa
:04003c00e2040000da
:020000040000fa
:04004000e2040000d6
:020000040000fa
:040044005003000065
:020000040000fa
:04004800760300003b
:020000040000fa
:04004c00e2040000ca
:020000040000fa
:040050001a0300008f
:020000040000fa
:04005400c2030000e3
:020000040000fa
:04005800e2040000be
:020000040000fa
:04005c00f4020000aa
:020000040000fa
:04006000e2040000b6
:020000040000fa
:04006400e2040000b2
:020000040000fa
:04006800e2040000ae
:020000040000fa
:04006c00e2040000aa
:020000040000fa
:04007000e2040000a6
:020000040000fa
:04007400e2040000a2
:020000040000fa
:04007800e20400009e
:020000040000fa
:04007c00e20400009a
:020000040000fa
:04008000e204000096
:020000040000fa
:04008400e204000092
:020000040000fa
:04008800e20400008e
:020000040000fa
:04008c00e20400008a
:020000040000fa
:04009000e204000086
:020000040000fa
:04009400e204000082
:020000040000fa
:04009800e20400007e
:020000040000fa
:04009c00e20400007a
:020000040000fa
:0400a000e204000076
:020000040000fa
:0400a400e204000072
:020000040000fa
:0400a800e20400006e
:020000040000fa
:0400ac00220300002b
:020000040000fa
:0400b000e204000066
:020000040000fa
:0400b400e204000062
:020000040000fa
:0400b800e20400005e
:020000040000fa
:0400bc00e20400005a
:020000040000fa
:0400c000e204000056
:020000040000fa
:0400c400e204000052
:020000040000fa
:0400c800e20400004e
:020000040000fa
:0400cc00e20400004a
:020000040000fa
:0400d000e204000046
:020000040000fa
:0400d400e204000042
:020000040000fa
:0400d800e20400003e
:020000040000fa
:0400dc00e20400003a
:020000040000fa
:0400e000e204000036
:020000040000fa
:0400e400e204000032
:020000040000fa
:0400e800e20400002e
:020000040000fa
:0400ec00e20400002a
:020000040000fa
:0400f000e204000026
:020000040000fa
:0400f4009c03000069
:020000040000fa
:0400f800e20400001e
:020000040000fa
:0400fc00e20400001a
:020000040000fa
:04010000e204000015
:020000040000fa
:04010400e204000011
:020000040000fa
:04010800e20400000d
:020000040000fa
:04010c00e204000009
:020000040000fa
:04011000e204000005
:020000040000fa
:04011400e204000001
:020000040000fa
:04011800e2040000fd
:020000040000fa
:04011c00e2040000f9
:020000040000fa
:04012000e2040000f5
:020000040000fa
:04012400e2040000f1
:020000040000fa
:04012800e2040000ed
:020000040000fa
:04012c00e2040000e9
:020000040000fa
:04013000e2040000e5
:020000040000fa
:04013400e2040000e1
:020000040000fa
:04013800e2040000dd
:020000040000fa
:04013c00e2040000d9
:020000040000fa
:04014000e2040000d5
:020000040000fa
:04014400e2040000d1
:020000040000fa
:04020800e20400000c
:020000040000fa
:04020c00e204000008
:020000040000fa
:04021000e204000004
:020000040000fa
:04021400e204000000
:020000040000fa
:04021800e2040000fc
:020000040000fa
:04021c00e2040000f8
:020000040000fa
:04022000e2040000f4
:020000040000fa
:04022400e2040000f0
:020000040000fa
:04022800e2040000ec
:020000040000fa
:04022c00e2040000e8
:020000040000fa
:04023000e2040000e4
:020000040000fa
:040234002a03000099
:020000040000fa
:04023800bc04000002
:020000040000fa
:04023c00e2040000d8
:020000040000fa
:04024000e2040000d4
:020000040000fa
:040244005003000063
:020000040000fa
:040248007603000039
:020000040000fa
:04024c00e2040000c8
:020000040000fa
:040250001a0300008d
:020000040000fa
:04025400c2030000e1
:020000040000fa
:04025800e2040000bc
:020000040000fa
:04025c00f4020000a8
:020000040000fa
:04026000e2040000b4
:020000040000fa
:04026400e2040000b0
:020000040000fa
:04026800e2040000ac
:020000040000fa
:04026c00e2040000a8
:020000040000fa
:04027000e2040000a4
:020000040000fa
:04027400e2040000a0
:020000040000fa
:04027800e20400009c
:020000040000fa
:04027c00e204000098
:020000040000fa
:04028000e204000094
:020000040000fa
:04028400e204000090
:020000040000fa
:04028800e20400008c
:020000040000fa
:04028c00e204000088
:020000040000fa
:04029000e204000084
:020000040000fa
:04029400e204000080
:020000040000fa
:04029800e20400007c
:020000040000fa
:04029c00e204000078
:020000040000fa
:0402a000e204000074
:020000040000fa
:0402a400e204000070
:020000040000fa
:0402a800e20400006c
:020000040000fa
:0402ac002203000029
:020000040000fa
:0402b000e204000064
:020000040000fa
:0402b400e204000060
:020000040000fa
:0402b800e20400005c
:020000040000fa
:0402bc00e204000058
:020000040000fa
:0402c000e204000054
:020000040000fa
:0402c400e204000050
:020000040000fa
:0402c800e20400004c
:020000040000fa
:0402cc00e204000048
:020000040000fa
:0402d000e204000044
:020000040000fa
:0402d400e204000040
:020000040000fa
:0402d800e20400003c
:020000040000fa
:0402dc00e204000038
:020000040000fa
:0402e000e204000034
:020000040000fa
:0402e400e204000030
:020000040000fa
:0402e800e20400002c
:020000040000fa
:0402ec00e204000028
:020000040000fa
:0402f000e204000024
:020000040000fa
:0402f4009c03000067
:020000040000fa
:0402f800e20400001c
:020000040000fa
:0402fc00e204000018
:020000040000fa
:04030000e204000013
:020000040000fa
:04030400e20400000f
:020000040000fa
:04030800e20400000b
:020000040000fa
:04030c00e204000007
:020000040000fa
:04031000e204000003
:020000040000fa
:04031400e2040000ff
:020000040000fa
:04031800e2040000fb
:020000040000fa
:04031c00e2040000f7
:020000040000fa
:04032000e2040000f3
:020000040000fa
:04032400e2040000ef
:020000040000fa
:04032800e2040000eb
:020000040000fa
:04032c00e2040000e7
:020000040000fa
:04033000e2040000e3
:020000040000fa
:04033400e2040000df
:020000040000fa
:04033800e2040000db
:020000040000fa
:04033c00e2040000d7
:020000040000fa
:04034000e2040000d3
:020000040000fa
:04034400e2040000cf
:020000040000fa
:10040000cf8c20000eef27000e01880000000000b6
:10041000000020000000e000020032000001200087
:100420002002880014000700680107000000e000b7
:1004300003003a0020fe20000100200002003700e7
:100440000000200001002000810f70000100320038
:1004500014000700000020000000e000020032004d
:100460000000020000000000b80d020000000000c3
:100470000040da000000fe004440a9000000200017
:100480000000e0000300320000002000a00188000e
:100490004440a800000006008a1f78008b1f7800e7
:1004a0000000060091018800800478000000eb0045
:1004b0001a003700e284440032a0b4009905ba0063
:1004c000e284440032a0b4009906ba00e2844400f9
:1004d00032a0b4000006eb00476fde00fd07b2005b
:1004e000636ce10003003a00ebff07000000eb0043
:1004f0000a003700606ce10004003a00005deb0088
:100500008b05e900fdff3e00040037006168e10053
:10051000010032000086eb000b00070019c7ba008b
:100520001905ba000e04e00003003a000a00e000da
:10053000e0ff3a0000000600fe07b2009e018800be
:100540008a047800f5ff3700395dba008b05e900b1
:100550000c003200295dba008b05e900080032006a
:100560000c00e00003003a00e284440032a0b40032
:10057000f5ff370019ddba008b05e900faff3a00f4
:100580008904e800e184440032a0b40000000600c1
:100590006609040000000000c00a0400000000001a
:1005a000240e040000000000540e040000000000af
:1005b000880e040000000000ba0e040000000000d5
:1005c000f206040000000000600f040000000000bc
:1005d000020d040000000000480d040000000000af
:1005e000ee0a0400000000003600f800809fbe0004
:1005f000829fbe00849fbe00869fbe000000fa005e
:1006000085a0a900204180000000e0000200320027
:1006100020418000000001000080fa004f03be006e
:100620004f02be004f01be004f00be003600f90071
:10063000004006000000fa008540a9000080fa0092
:10064000004006000000fa008820a9000080fa009f
:10065000004006003600f800809fbe00829fbe006a
:10066000849fbe00869fbe000000fa008460a9003f
:10067000804080000000e0000200320080408000e6
:10068000000001000080fa004f03be004f02be00d0
:100690004f01be004f00be003600f90000400600ca
:1006a0003600f800809fbe00829fbe00849fbe007f
:1006b000869fbe000000fa0084e0a9009040800000
:1006c0000000e000020032009040800000000100c5
:1006d0000080fa004f03be004f02be004f01be0073
:1006e0004f00be003600f900004006003600f8005a
:1006f000809fbe00829fbe00849fbe00869fbe007a
:100700000000fa008500a900a04080000000e00081
:1007100002003200a0408000000001000080fa00ca
:100720004f03be004f02be004f01be004f00be008f
:100730003600f900004006003600f800809fbe0039
:10074000829fbe00849fbe00869fbe000000fa000c
:100750008a60a900b04080000000e0000200320082
:10076000b0408000000001000080fa004f03be008e
:100770004f02be004f01be004f00be003600f90020
:10078000004006003600f800809fbe00829fbe0039
:10079000849fbe00869fbe000000fa008560a9000d
:1007a000301180000040780002e8b700318020005e
:1007b0009140780002c8bf0000c0400003e8b700c5
:1007c00004c8bf000004a2000004e00012003200d0
:1007d00030408000e10f50000f003e00404080009c
:1007e000c800dd0002c8bf000080fb0000804000a0
:1007f00040408800304080000000e8003040880021
:1008000030408000e20f500018003a0010c0b300e2
:1008100004e8b700150037000ac8bf000004a200b2
:100820000004e0001100320030408000e30f50006f
:100830000e003e0060408000c800dd0002c8bf001e
:100840000080fb0000804000604088003040800055
:100850000000e8003040880030408000e40f500085
:1008600002003a0010c0b3000ae8b70004c8bf0095
:100870000004a2000004e00035003a000ac8bf00ee
:100880000004a2000004e00033003a0004c8bf00e6
:100890000004e0000b0032000ac8bf000004e000c2
:1008a000080032000ec8bf000004a2000004e000ef
:1008b000040032000628ef0010c0b3000ee8b700b5
:1008c00026003700604080000000e80031408000d2
:1008d000810f500009003600324080002180200046
:1008e00091407800c082200002004000014878005a
:1008f000304080000000e800304088000040800068
:100900000000e00015003200604080000000e800b8
:1009100031408000810f500010003a0003c8bf0032
:100920000004e00004003a000240800040408000e3
:10093000c1822000020001000628ef000368ef00da
:100940000468ef000a68ef000e68ef00030037004c
:100950000000000001003700000000000080fa00e5
:100960004f03be004f02be004f01be004f00be004d
:100970003600f900004006003600f800809fbe00f7
:10098000829fbe00849fbe00869fbe000000fa00ca
:100990008480a900404180000000e0000200320095
:1009a00040418000000001000080fa004f03be00bb
:1009b0004f02be004f01be004f00be003600f900de
:1009c000004006000040da000000fe0000000500c4
:020000040000fa
:1009d0000000fa0040012000010020000300070091
:1009e000060107000080fa00000006000200fa007d
:1009f000000f780021e2a90021a2a9002182a9000c
:100a00002162a90001118000f0cf2f00008060005a
:100a10000011880020e2a90020c2a90020a2a9009c
:100a20002082a9002062a9000111800090ff2f0000
:100a300000806000001188002002a9009e0078005c
:100a40004111880023e2a80023c2a90023a2a90023
:100a50002362a9002322a9002302a900111180000a
:100a6000f0f32f00008060001011880022a2a9007e
:100a70002282a9002262a9002242a9002222a90002
:100a80002202a90041058000f0ff2800808060005c
:100a9000000025000100700040058800510580001d
:100aa00080ff2f00008060005000b30050058800d8
:100ab000206f2000c50007008580a9009580a9004f
:100ac0008560a9009560a80021e2a8002342a80043
:100ad0000080fa00000006000000fa0010118000fb
:100ae0004800de00614060000080fb0000f0a700cd
:100af0000000ea000000ea004f00de00004078003d
:100b00000080fa00000006000200fa00004f7800a2
:100b100000000000f0ff07000004a2000004e00055
:100b2000fcff3a001e80fb00201188000080fa00c4
:100b3000000006000800fa00640147000009780080
:100b400066004700010878000040eb00004f780085
:100b50008000eb000e80e8000108780019003700e3
:100b600000000000dcff07000004a2000004e00019
:100b7000fcff3a000e80e800900078006400470017
:100b80001000780001004000104078001e4f400027
:100b90000e80e800900078006400470010007800a4
:100ba00001004000104078000080fb002011880008
:100bb0000e80e800100078008000e8000e80e80059
:100bc000010878000e80e800900078006600470079
:100bd00010007800808f5000e1ff39000000000015
:100be000bdff07000004a2000004e000fcff3a0083
:100bf0001e80fb00201188000080fa000000060023
:100c00000a00fa00e4014700800978006600470006
:100c10000108780068004700020878000040eb00f7
:100c2000004f780000000000abff07000004a200a6
:100c30000004e000fcff3a00640047001000780068
:100c40004800de00004078000080fb002011880092
:100c500064004700100078004800de000040780083
:100c60001e4f4000000000009bff07000004a20090
:100c70000004e000fcff3a00640047001000780028
:100c8000004078000080fb002011880064004700cd
:100c900010007800004078001e4f40000000000067
:100ca0008dff07000004a2000004e000fcff3a00f2
:100cb00068004700100078004800de00004078001f
:100cc0000080fb00201188006800470010007800b9
:100cd0004800de00004078001e4f40000000000089
:100ce0007dff07000004a2000004e000fcff3a00c2
:100cf0006800470010007800004078000080fb008a
:100d0000201188006800470010007800004078003b
:100d10001e4f40000e80e800e600470011087800f2
:100d200013003700000000006bff07000004a20062
:100d30000004e000fcff3a000e80e800100078009c
:100d4000104078000080fb00201188000e80e80031
:100d500010007800104078001e4f40000e80e80020
:100d6000100078008000e8000e80e800010878009c
:100d7000680047001000780000f0a7000000ea00bb
:100d80000000ea004f00de0000407800e800470065
:100d9000910078000101e900e8004700820878002e
:100da0000004e000dfff3a00000000004aff0700f7
:100db0000004a2000004e000fcff3a001e80fb00db
:100dc000201188000080fa00000006000200fa00ee
:100dd000000f78009e007800014088000080fa0033
:100de000000006000400fa00000f78000e80e80002
:100df000010878000080fa00000006000000fa00f8
:100e00000080fa00000006000000fa00e922a800b5
:100e1000000000000b0007000004a2000004e00036
:100e2000fcff3a000080fa00000006000200fa0011
:100e3000000f78009e007800314188000080fa00a1
:100e4000000006000200fa00e922a90031418000fa
:100e5000700d20000100010031418000f00f2000e2
:100e600001000100004f7800e922a8001e40780030
:100e70000080fb004700de00004078000080fa00a0
:100e8000000006000c00fa00881f7800e601470009
:100e90008009780068004700010878006a00470070
:100ea000020878000040eb00004f78008000eb0063
:100eb000640047000108780000000000e1ff07001f
:100ec0000004a2000004e000fcff3a00e922a900af
:100ed00031418000200d20000100010031418000df
:100ee00066004700100078004500de0000407800f2
:100ef0000080fb00010001003241800066004700d5
:100f000010007800004078004200dd008080fb0087
:100f100064004700100078004800de0000407800c0
:100f20000080fb006300600001007000020001000f
:100f300031418000640047001000780000407800d4
:100f40000080fb0001000100314180000000eb0047
:100f500001000100314180000000eb0001000100b0
:100f6000314180000000eb000100010031418000b0
:100f70000000eb00010001008000eb000e80e800a3
:100f800001087800150037006800470090007800dd
:100f90000e80e8001000780000844000314180009d
:100fa000f00f200001000100004c780068004700ad
:100fb000900078000e80e80010007800008040006b
:100fc000104078001e4f40000e80e80010007800ae
:100fd0008000e8000e80e800010878000e80e8003c
:100fe000900078006a00470010007800808f500061
:100ff000e5ff390031418000f00f200001000100c1
:101000001e4f4000e922a8001e4078000004e000c6
:1010100002003a000040eb000100370010c0b300ae
:101020004f0478000080fa00000006000c00fa006f
:10103000e601470080097800680047000108780051
:101040006a004700020878000040eb00004f78007b
:101050008000eb00640047000108780000000000f9
:1010600078ff07000004a2000004e000fcff3a0043
:10107000e922a90031418000400820000100010060
:10108000314180000000eb0001000100314180008f
:1010900064004700100078004800de006300600034
:1010a0000100010031418000640047001000780019
:1010b000010001008000eb000e80e80001087800cc
:1010c0001500370068004700900078000e80e800a7
:1010d0001000780000804000104078001e4f400053
:1010e0003141800068004700100178000e80e80060
:1010f0001000780000004100104078000080fb00e4
:10110000010001000e80e800100078008000e80077
:101110000e80e800010878000e80e800900078005a
:101120006a00470010007800808f5000e5ff39000a
:10113000314180001e80fb0001000100e922a8006f
:10114000000000003fff07000004a2000004e000d0
:10115000fcff3a00e922a90031418000300820005c
:101160000100010031418000660047001000780056
:101170004500de00004078000080fb000100010017
:101180003141800066004700100078000040780080
:101190004200dd000080fb000100010031418000c1
:1011a0000000eb0001000100e922a8000080fa0025
:1011b000000006000000fa00020007000080fa00ac
:1011c000000006000000fa002143a8002183a900c6
:1011d00001198000f0cf2f00008060000019880006
:1011e00001198000f0f12f00008060000060a00075
:1011f000001988002043a800111b8000f0ff210087
:1012000000806000101b88002343a8001119800093
:10121000f0cf2f00008060001019880011198000a5
:1012200030fc2f0000806000101988002223a900e4
:101230002203a900a0c0b30024e3b7002119800055
:10124000f00f2e000080600000c0a0002019880070
:101250009119800080ff2f00008060003000b300f3
:101260009019880029e3a90028e3a900411980000a
:1012700000fe2f0000806000401988003023ef003e
:101280003003a8000080eb00501988000080eb00bc
:10129000601988002c03a900609620000500070053
:1012a00085a0a90095a0a80021e3a8000080fa006d
:1012b000000006000200fa00000f78009e0078008f
:1012c000214188000080fa00000006000000fa00ba
:1012d0000080fa00000006000000fa006143a90047
:1012e000011b8000f0cf2f0000806000001b8800f1
:1012f000011b8000000e200001007000001b880010
:101300006043a8006183a900111b8000f0ff210049
:1013100000806000101b88006343a800111b800040
:10132000f0cf2f0000806000101b8800111b800090
:1013300030fc2f0080806000c0022000010070009f
:10134000101b88006223a90030c1b30064e3b7001a
:10135000211b8000f00f2e008080600000a0200084
:1013600001007000201b8800911b800080ff2f006f
:10137000008060003000b300901b880069e3a90082
:1013800068e3a900411b800000ff2f00008060007f
:10139000401b8800311b8000f09f2f000080600000
:1013a000301b88006703a900311b800090ff2f00cd
:1013b00000806000301b88006603a900f00e20004a
:1013c000801b88006c03a9006c23a9006c43a90052
:1013d0006c63a9006c83a9006ca3a9006cc3a9006d
:1013e0006ce3a8006d03a8006d23a8006d43a8005e
:1013f0006d63a8006d83a8006da3a8006dc3a8004d
:101400006de3a80085a0a90095a0a90021e3a9008b
:101410000080fa00000006000000fa0010c0b300cf
:1014200003000700590007000080fa0000000600d2
:101430000200fa00004f780042a2a8001e40780087
:10144000140007004342a9001112800030fe2f0053
:10145000008060008001b30010128800111280002b
:10146000c0ff2f00008060000010a0001012880054
:101470004362a9004382a90000ac20003a000700a3
:101480008540a9009540a90041e2a8000080fa002b
:10149000000006000200fa00004f78001e80fb00ea
:1014a000e10f50000d003200e10f500003003c003e
:1014b0000000e0000600320011003700e20f50008b
:1014c00009003200e30f50000a0032000c00370020
:1014d00042c2a9004302a8000900370042c2a90085
:1014e0004302a9000600370042c2a8004302a80038
:1014f0000300370042c2a8004302a9000000000018
:101500000080fa00000006000200fa00000f7800d8
:101510009e00780041128800000000000012800048
:10152000610060000000e000fcff3200401280001b
:10153000004078000080fa00000006000000fa0079
:101540004822ef00000000000012800061006000ef
:101550000000e000fcff32004012800000407800f4
:101560000080fa00000006000200fa00000f780078
:101570009e007800114188000080fa0000000600fb
:101580000000fa000080fa00000006000000fa00e7
:1015900062c2a9006302a8006342a90062a2a80077
:1015a00011138000c0ff2f00008060000010a00019
:1015b0001013880010138000c001b30010138800be
:1015c0006362a9006382a90061e2a8008820a900e3
:1015d0009820a8000080fa00000006000200fa002f
:1015e000000f78009e007800411388000000000082
:1015f00000138000610060000000e000fcff32008a
:1016000040138000004078000080fa0000000600cf
:101610000000fa006822ef000000000000138000c4
:10162000610060000000e000fcff32004013800019
:10163000004078000080fa00000006000000fa0078
:10164000020007000080fa00000006000000fa0017
:1016500081208000f0f32f0000806000802088004f
:101660008120800000fc2f00008060008020880026
:1016700013c5a90091288000f08f2f000080600022
:101680009028880012e5a90012c5a90091288000c1
:1016900070fc2f0000806000902888009128800056
:1016a00080ff2f0000806000902888001424ef0045
:1016b000c1208000f0ff230000806000c02088006f
:1016c000c1208000f0ff2c0000806000c020880056
:1016d000c1208000f03f2f0000806000c020880003
:1016e000c1208000f0cf2f0000806000c020880063
:1016f000c1208000f0f32f0000806000c02088002f
:10170000c1208000f0fc2f0000806000c020880015
:10171000c120800030ff2f0000806000c0208800c2
:10172000c1208000c0ff2f0000806000c020880022
:10173000d1208000f0ff230000806000d0208800ce
:10174000d1208000f0ff2c0000806000d0208800b5
:10175000d1208000f03f2f0000806000d020880062
:10176000d1208000f0cf2f0000806000d0208800c2
:10177000d1208000f0f32f0000806000d02088008e
:10178000d1208000f0fc2f0000806000d020880075
:10179000d120800030ff2f0000806000d020880022
:1017a000d1208000c0ff2f0000806000d020880082
:1017b00001218000f0ff20000080600000218800ef
:1017c00001218000f00f2f000080600000218800c0
:1017d00001218000f0f02f000080600000218800cf
:1017e0000121800000ff2f000080600000218800a0
:1017f00011218000f0ff200000806000102188008f
:1018000011218000f00f2f0000806000102188005f
:1018100011218000f0f02f0000806000102188006e
:101820001121800000ff2f0000806000102188003f
:101830000080fa00000006000000fa000080eb00c3
:10184000601988000080eb00501988000080eb00d0
:10185000601b8800c1e2a800c1c2a800c1a2a80004
:10186000c182a800c142a800c122a800c0e2a8000d
:10187000c0c2a800c0a2a900c082a900c062a9007d
:10188000c042a900c022a900c002a900c7e2a80066
:10189000c7c2a800c7a2a800c782a800c762a80044
:1018a000c742a800c722a800c702a800c6e2a80035
:1018b000c6c2a800c6a2a800c682a800c662a80028
:1018c000c642a800c622a800c602a800cde2a80011
:1018d000cdc2a800cda2a800cd82a800cc82a800cd
:1018e000cc62a800cc42a800cc22a800d3e2a80079
:1018f000d3c2a900d3a2a900d382a900d362a800b1
:10190000d342a800d322a800d302a800d2e2a900a3
:10191000d2c2a900d2a2a900d282a900d262a90093
:10192000d242a900d222a900d202a900d8e2a9007d
:10193000d8c2a900d8a2a900d882a900d862a9005b
:10194000d842a900d822a900d802a900dfa2a90084
:10195000df82a900df02a800dee2a900dec2a90042
:10196000dea2a800de82a800de62a900de42a80096
:10197000de22a800de02a800e5e2a800e5c2a80079
:10198000e5a2a800e582a900e522a900e502a800d9
:10199000e4e2a900e4c2a900e462a800e442a800cd
:1019a000e422a800e402a800c422ef00ca22ef004b
:1019b000d022ef00d622ef00dc22ef00e222ef007f
:1019c000e822ef00c402a800c422a800c442a80074
:1019d000c462a800c482a800c4a2a800e382a80030
:1019e000e922a8000080fa00000006000000fa00ca
:1019f0008220a8008680a9009680a8000080fa00b6
:101a0000000006000000fa00c2408000d3408000c1
:101a100061014100e0814900c2408800d340880054
:101a2000c4408000d5408000f21f20000300200049
:101a300004037800050278008202780083017800b0
:101a400005016300830162008300780002007800d2
:101a5000e00f5000e08f58000b003a002016800085
:101a6000004078006140600000c0ea006140600012
:101a70000080fb0061006000211680000100a100d1
:101a800001007000201688000080fa0000000600a7
:101a90000000fa00f0408000710f20008100680013
:101aa00001f0a7008100ea008100e900cf08de0014
:101ab000814078000000e800f04088000104e00068
:101ac000030032001e28ef0010c0b3001ce8b7006e
:101ad0000080fa00000006000000fa0020d020007c
:101ae0005300070080d42000ef0007000080fa00b8
:101af000000006000000fa00e0ae2000cbfc07006a
:101b00000080fa00000006000000fa00d0892000e2
:101b100053418000720120008000780003007800ab
:101b200042fd07000080fa00000006000000fa00f5
:101b3000408b20005341800072012000800078001b
:101b400003007800cffc0700000000000080fa00ce
:101b5000000006000000fa00df000700deff0700bb
:101b6000e4ff0700e70007000080fa00000006001d
:101b70001000fa00f7ff0700e3ff0700ebff070084
:101b8000e2004700050009008018eb008058eb00d8
:101b90000000eb00000f7800060037001e00780000
:101ba000804078000e80e8001e0040000148780068
:101bb0001e0fe8001e007800ec0f5000f7ff360003
:101bc000ffff37000000fa0003000700390007009c
:101bd0000080fa00000006000000fa000421ef0077
:101be0000021ef0021088000f0fc2f000080600041
:101bf0000040a000200888008038210010088800dc
:101c00009460a8008460a90021058000f0ff2800ee
:101c10000080600000c0a0002005880040e2200095
:101c20000300070005e1a8000080fa00000006009c
:101c30000200fa00000f78009e00780081408800c2
:101c40000080fa00000006000000fa000080fa00a0
:101c5000000006000000fa001021ef000621ef004e
:101c600081088000f0fc2f00008060000040a00090
:101c700080088800401f20006008880040e52000a0
:101c80000300070011e1a8000080fa000000060030
:101c90000200fa00000f78009e0078009140880052
:101ca0000080fa00000006000000fa000080fa0040
:101cb000000006000000fa001221ef0091088000e9
:101cc000f0fc2f00008060000040a0009008880019
:101cd0000a21ef00c05d20007008880080e8200025
:101ce000050007009500a9008500a90013e1a800e0
:101cf0000080fa00000006000200fa00000f7800e1
:101d00009e007800a14088000080fa0000000600d4
:101d10000000fa000080fa00000006000000fa004f
:101d20003a21ef00d109800000032000010070007b
:101d3000d00988003021ef0090d02300b00988003e
:101d4000a0eb2000050007009a60a8008a60a900a7
:101d50003be1a8000080fa00000006000200fa0043
:101d6000000f78009e007800b14088000080fa00e3
:101d7000000006000000fa000080fa0000000600e3
:101d80000000fa00020007000080fa0000000600d0
:101d90000000fa0000f62000430007008480a9003c
:101da0009480a90081c3a80081a3a800011c800021
:101db000f0fc2f0000806000001c8800011c8000e7
:101dc000c0ff2f00008060000000a000001c880001
:101dd000111c800000f82f0000806000c000b300dc
:101de000101c880000702000201c88004022200069
:101df000401c8800f0002000501c880081e3a900ee
:101e000083e3a8000080fa00000006000200fa0048
:101e1000000f78001e00e900501c88000080fa00c6
:101e2000000006000600fa000e81e80000097800b4
:101e30006400470001087800640047001000780043
:101e4000f2ff07000000eb00000f780009003700e8
:101e50009e0078000e80e80010007800010040002d
:101e60009040780000f027001e00400001487800f4
:101e70001e0fe8009e007800640047001000780004
:101e8000808f5000f2ff3900020007000080fa0046
:101e9000000006000000fa0081e3a80083e3a80028
:101ea0000080fa00000006000200fa00000f78002f
:101eb0009e007800414188000080fa000000060082
:101ec0000000fa000080fa00000006000000fa009e
:101ed0000080fa00000006000000fa000d00070074
:101ee00055fe070037ff0700b2fc0700b8fa0700ed
:101ef00049fd0700a2ff0700d0fd07000080fa009f
:101f0000000006000000fa00bffb07000080fa0096
:101f1000000006000000fa0060022000303a88004d
:101f2000213a8000f0f32f0000806000203a880002
:101f3000213a800000fe2f0000806000203a8800d7
:101f40004827ef0040a7a90040c7a9004087a90083
:101f50003200200080072000a109200033742000f7
:101f60008049780081497800824978001200200079
:101f7000600420007105200023742000804978004f
:101f8000814978008249780000000000113a800001
:101f9000000027008080600000002300808f500038
:101fa000faff3a0000000000113a80000002200011
:101fb000008060000000e000fbff32000080fa00bb
:041fc0000000060017
:020000040000fa
:101fc40024080000020000000000000026080000b1
:101fd40002000000000000002008000004000000cf
:101fe40000000000100800000800000000000000cd
:101ff4002c0800006400000000000000000800003d
:10200400100000000000000028080000020000008a
:1020140000000000007f000000010000000000003c
:1020240090080000240000000200000068656c00b5
:102034006c6f77006f726c0064212100006865008a
:10204400792163006b75660021667500636b21005e
:10205400686579002168650079210000b4080000f2
:10206400180000000000000018080000080000002c
:10207400000000002a080000020000000200000026
:082084000a000000000000004a
:020000040000fa
:10208c000000fa008421ef008461a9008221ef0096
:10209c008021ef00210c800080ff2f000080600069
:1020ac006000b300200c88000080fa0000000600dd
:1020bc000000fa00210c800080ff2f0000806000df
:1020cc00200c88000080fa00000006000200fa00d4
:1020dc00000f78009e007800110c88000080fa0038
:1020ec00000006000000fa008a21ef008a61a900b6
:1020fc00510c800080ff2f00008060006000b30056
:10210c00500c88008821ef008621ef000080fa0037
:10211c00000006000000fa00510c800080ff2f0028
:10212c0000806000500c88000080fa00000006005f
:10213c000000fa00d782a800d7a2a800d7c2a90035
:10214c003421ef0060092000c00988008a80a900b2
:10215c009a80a8003de1a9000080fa00000006006a
:020000040000fa
:0200000401f009
:04000c00fbff0000f6
:020000040000fa
:0200000401f009
:040010007dff000070
:020000040000fa
:0200000401f009
:040014007fffff006b
:020000040000fa
:0200000401f009
:04001c00deff000003
:00000001FF
