:020000040000fa
:080000000002040000000000f2
:020000040000fa
:04000800fa030000f7
:020000040000fa
:04000c00fa030000f3
:020000040000fa
:04001000fa030000ef
:020000040000fa
:04001400fa030000eb
:020000040000fa
:04001800fa030000e7
:020000040000fa
:04001c00fa030000e3
:020000040000fa
:04002000fa030000df
:020000040000fa
:04002400fa030000db
:020000040000fa
:04002800fa030000d7
:020000040000fa
:04002c00fa030000d3
:020000040000fa
:04003000fa030000cf
:020000040000fa
:040034003c03000089
:020000040000fa
:04003800d4030000ed
:020000040000fa
:04003c00fa030000c3
:020000040000fa
:04004000fa030000bf
:020000040000fa
:040044006203000053
:020000040000fa
:040048008803000029
:020000040000fa
:04004c00fa030000b3
:020000040000fa
:040050000e0300009b
:020000040000fa
:04005400fa030000ab
:020000040000fa
:04005800fa030000a7
:020000040000fa
:04005c00e8020000b6
:020000040000fa
:04006000fa0300009f
:020000040000fa
:04006400fa0300009b
:020000040000fa
:04006800fa03000097
:020000040000fa
:04006c00fa03000093
:020000040000fa
:04007000fa0300008f
:020000040000fa
:04007400fa0300008b
:020000040000fa
:04007800fa03000087
:020000040000fa
:04007c00fa03000083
:020000040000fa
:04008000fa0300007f
:020000040000fa
:04008400fa0300007b
:020000040000fa
:04008800fa03000077
:020000040000fa
:04008c00fa03000073
:020000040000fa
:04009000fa0300006f
:020000040000fa
:04009400fa0300006b
:020000040000fa
:04009800fa03000067
:020000040000fa
:04009c00fa03000063
:020000040000fa
:0400a000fa0300005f
:020000040000fa
:0400a400fa0300005b
:020000040000fa
:0400a800fa03000057
:020000040000fa
:0400ac00fa03000053
:020000040000fa
:0400b000fa0300004f
:020000040000fa
:0400b400fa0300004b
:020000040000fa
:0400b800fa03000047
:020000040000fa
:0400bc00fa03000043
:020000040000fa
:0400c000fa0300003f
:020000040000fa
:0400c400fa0300003b
:020000040000fa
:0400c800fa03000037
:020000040000fa
:0400cc00fa03000033
:020000040000fa
:0400d000fa0300002f
:020000040000fa
:0400d400fa0300002b
:020000040000fa
:0400d800fa03000027
:020000040000fa
:0400dc00fa03000023
:020000040000fa
:0400e000fa0300001f
:020000040000fa
:0400e400fa0300001b
:020000040000fa
:0400e800fa03000017
:020000040000fa
:0400ec00fa03000013
:020000040000fa
:0400f000fa0300000f
:020000040000fa
:0400f400ae03000057
:020000040000fa
:0400f800fa03000007
:020000040000fa
:0400fc00fa03000003
:020000040000fa
:04010000fa030000fe
:020000040000fa
:04010400fa030000fa
:020000040000fa
:04010800fa030000f6
:020000040000fa
:04010c00fa030000f2
:020000040000fa
:04011000fa030000ee
:020000040000fa
:04011400fa030000ea
:020000040000fa
:04011800fa030000e6
:020000040000fa
:04011c00fa030000e2
:020000040000fa
:04012000fa030000de
:020000040000fa
:04012400fa030000da
:020000040000fa
:04012800fa030000d6
:020000040000fa
:04012c00fa030000d2
:020000040000fa
:04013000fa030000ce
:020000040000fa
:04013400fa030000ca
:020000040000fa
:04013800fa030000c6
:020000040000fa
:04013c00fa030000c2
:020000040000fa
:04014000fa030000be
:020000040000fa
:04014400fa030000ba
:020000040000fa
:04020800fa030000f5
:020000040000fa
:04020c00fa030000f1
:020000040000fa
:04021000fa030000ed
:020000040000fa
:04021400fa030000e9
:020000040000fa
:04021800fa030000e5
:020000040000fa
:04021c00fa030000e1
:020000040000fa
:04022000fa030000dd
:020000040000fa
:04022400fa030000d9
:020000040000fa
:04022800fa030000d5
:020000040000fa
:04022c00fa030000d1
:020000040000fa
:04023000fa030000cd
:020000040000fa
:040234003c03000087
:020000040000fa
:04023800d4030000eb
:020000040000fa
:04023c00fa030000c1
:020000040000fa
:04024000fa030000bd
:020000040000fa
:040244006203000051
:020000040000fa
:040248008803000027
:020000040000fa
:04024c00fa030000b1
:020000040000fa
:040250000e03000099
:020000040000fa
:04025400fa030000a9
:020000040000fa
:04025800fa030000a5
:020000040000fa
:04025c00e8020000b4
:020000040000fa
:04026000fa0300009d
:020000040000fa
:04026400fa03000099
:020000040000fa
:04026800fa03000095
:020000040000fa
:04026c00fa03000091
:020000040000fa
:04027000fa0300008d
:020000040000fa
:04027400fa03000089
:020000040000fa
:04027800fa03000085
:020000040000fa
:04027c00fa03000081
:020000040000fa
:04028000fa0300007d
:020000040000fa
:04028400fa03000079
:020000040000fa
:04028800fa03000075
:020000040000fa
:04028c00fa03000071
:020000040000fa
:04029000fa0300006d
:020000040000fa
:04029400fa03000069
:020000040000fa
:04029800fa03000065
:020000040000fa
:04029c00fa03000061
:020000040000fa
:0402a000fa0300005d
:020000040000fa
:0402a400fa03000059
:020000040000fa
:0402a800fa03000055
:020000040000fa
:0402ac00fa03000051
:020000040000fa
:0402b000fa0300004d
:020000040000fa
:0402b400fa03000049
:020000040000fa
:0402b800fa03000045
:020000040000fa
:0402bc00fa03000041
:020000040000fa
:0402c000fa0300003d
:020000040000fa
:0402c400fa03000039
:020000040000fa
:0402c800fa03000035
:020000040000fa
:0402cc00fa03000031
:020000040000fa
:0402d000fa0300002d
:020000040000fa
:0402d400fa03000029
:020000040000fa
:0402d800fa03000025
:020000040000fa
:0402dc00fa03000021
:020000040000fa
:0402e000fa0300001d
:020000040000fa
:0402e400fa03000019
:020000040000fa
:0402e800fa03000015
:020000040000fa
:0402ec00fa03000011
:020000040000fa
:0402f000fa0300000d
:020000040000fa
:0402f400ae03000055
:020000040000fa
:0402f800fa03000005
:020000040000fa
:0402fc00fa03000001
:020000040000fa
:04030000fa030000fc
:020000040000fa
:04030400fa030000f8
:020000040000fa
:04030800fa030000f4
:020000040000fa
:04030c00fa030000f0
:020000040000fa
:04031000fa030000ec
:020000040000fa
:04031400fa030000e8
:020000040000fa
:04031800fa030000e4
:020000040000fa
:04031c00fa030000e0
:020000040000fa
:04032000fa030000dc
:020000040000fa
:04032400fa030000d8
:020000040000fa
:04032800fa030000d4
:020000040000fa
:04032c00fa030000d0
:020000040000fa
:04033000fa030000cc
:020000040000fa
:04033400fa030000c8
:020000040000fa
:04033800fa030000c4
:020000040000fa
:04033c00fa030000c0
:020000040000fa
:04034000fa030000bc
:020000040000fa
:04034400fa030000b8
:020000040000fa
:100400006fcc20000eff27000e01880000000000c6
:10041000000020000000e000020032000001200087
:100420002002880014000700f40007000000e0002c
:1004300003003a0000c12000010020000200370044
:100440000000200001002000810f70000100320038
:1004500014000700000020000000e000020032004d
:100460000000020000000000d40b020000000000a9
:100470000040da000000fe004440a9000000200017
:100480000000e0000300320000002000a00188000e
:100490004440a800000006008a1f78008b1f7800e7
:1004a0000000060091018800800478000000eb0045
:1004b0001a003700e284440032a0b4009905ba0063
:1004c000e284440032a0b4009906ba00e2844400f9
:1004d00032a0b4000006eb00476fde00fd07b2005b
:1004e000636ce10003003a00ebff07000000eb0043
:1004f0000a003700606ce10004003a00005deb0088
:100500008b05e900fdff3e00040037006168e10053
:10051000010032000086eb000b00070019c7ba008b
:100520001905ba000e04e00003003a000a00e000da
:10053000e0ff3a0000000600fe07b2009e018800be
:100540008a047800f5ff3700395dba008b05e900b1
:100550000c003200295dba008b05e900080032006a
:100560000c00e00003003a00e284440032a0b40032
:10057000f5ff370019ddba008b05e900faff3a00f4
:100580008904e800e184440032a0b40000000600c1
:1005900084070400000000009a0604000000000028
:1005a000500a040000000000800a0400000000005f
:1005b000b40a040000000000e60a04000000000085
:1005c000ae0b040000000000040c0400000000005a
:1005d0003600f800809fbe00829fbe00849fbe0050
:1005e000869fbe000000fa0085a0a9009040800010
:1005f0000000e00002003200904080000000010096
:100600000080fa004f03be004f02be004f01be0043
:100610004f00be003600f900004006003600f8002a
:10062000809fbe00829fbe00849fbe00869fbe004a
:100630003400f80000002000a00188000000fa004b
:100640008540a900804080000000e00002003200e8
:1006500080408000000001000080fa003400f900b2
:100660004f03be004f02be004f01be004f00be0050
:100670003600f900004006003600f800809fbe00fa
:10068000829fbe00849fbe00869fbe000000fa00cd
:100690008460a900004080000000e00002003200f9
:1006a00000408000000001000080fa004f03be00ff
:1006b0004f02be004f01be004f00be003600f900e1
:1006c000004006003600f800809fbe00829fbe00fa
:1006d000849fbe00869fbe000000fa0084e0a9004f
:1006e000104080000000e000020032001040800056
:1006f000000001000080fa004f03be004f02be0060
:100700004f01be004f00be003600f9000040060059
:100710003600f800809fbe00829fbe00849fbe000e
:10072000869fbe000000fa008500a90020408000de
:100730000000e000020032002040800000000100c4
:100740000080fa004f03be004f02be004f01be0002
:100750004f00be003600f900004006003600f800e9
:10076000809fbe00829fbe00849fbe00869fbe0009
:100770000000fa008a60a900304080000000e0001c
:100780000200320030408000000001000080fa00ca
:100790004f03be004f02be004f01be004f00be001f
:1007a0003600f900004006003600f800809fbe00c9
:1007b000829fbe00849fbe00869fbe000000fa009c
:1007c0008480a900a04080000000e0000200320008
:1007d000a0408000000001000080fa004f03be002e
:1007e0004f02be004f01be004f00be003600f900b0
:1007f000004006000040da000000fe000000050096
:020000040000fa
:100800000000fa00e922a80000000000050007002f
:100810000004a2000004e000fcff3a000080fa009f
:10082000000006000200fa000040eb00004f7800d4
:10083000e922a90070cdb300550107000040eb008c
:1008400053010700004f7800e922a8001e407800fd
:100850000004e00002003d0010c0b30001003700ba
:100860000040eb000080fa00000006000a00fa00d9
:10087000881f78006601470000097800680047007b
:100880000108780000000000e6ff07000004a20055
:100890000004e000fcff3a008000eb006400470029
:1008a00001087800e922a90020cdb3003801070033
:1008b0006600470010007800100078004600de0057
:1008c0000040780032010700660047001000780001
:1008d00010007800004078002d01070064004700f8
:1008e0001000780000407800290107000040eb006c
:1008f000270107000040eb00250107000040eb0046
:10090000230107000040eb00210107000000eb007d
:10091000000f7800080037009e007800680047004c
:1009200010007800010440000040eb0018010700af
:10093000004c78001e0fe8001e007800e70f500002
:10094000f5ff34008000eb000e80e800010878001d
:100950000d0037000e80e800900078006800470026
:1009600010007800010440000040eb00080107007f
:10097000004c78000e80e800100078008000e8004d
:100980000e80e800010878000e80e80090007800f2
:10099000f00f2000808f5000eeff3400e922a80005
:1009a0004f0478000080fa00000006006e00fa0094
:1009b000a20620000e01410000097800c0062000b8
:1009c0000e004000010878000000000095ff0700bd
:1009d0000004a2000004e000fcff3a000000eb006d
:1009e000000f7800060037001e0078008040780075
:1009f000660047001e004000014878001e0fe80016
:100a0000300620009e007800808f5000f6ff3400f2
:100a1000e922a90040c8b300dd0007000040eb0058
:100a2000db0007000040eb00d90007000040eb00ae
:100a3000d70007008000eb000e80e8000108780076
:100a40000700370010c0b300d10007000e80e80097
:100a5000100078008000e8000e80e80001087800af
:100a60000e80e80010007800e70f5000f5ff34001a
:100a70008000eb0064004700010878000d0037009b
:100a80006400470090007800c00620000e0040007f
:100a9000100078000100400010407800bc00070002
:100aa00064004700100078008000e8006400470000
:100ab000010878006400470090007800f00f2000e3
:100ac000808f5000eeff3400e922a80000000000f3
:100ad00054ff07000004a2000004e000fcff3a00fd
:100ae000e922a90030c8b300a9000700a006200031
:100af0000e00400010007800100078004600de0074
:100b000000407800a2000700a00620000e00400070
:100b10001000780010007800004078009c0007006a
:100b20000040eb009a000700e922a8000080fa00cc
:100b3000000006000000fa0010c0b3000300070028
:100b40007f0007000080fa00000006000200fa00a3
:100b5000004f780042a2a8001e4078001400070051
:100b60004342a9001112800030fe2f000080600077
:100b70008001b3001012880011128000c0ff2f0006
:100b8000008060000010a000101288004362a900dd
:100b90004382a900a0692000600007008540a900e9
:100ba0009540a80041e2a8000080fa00000006007d
:100bb0000200fa00004f78001e80fb00e10f500099
:100bc0000d003200e10f500003003c000000e00087
:100bd0000600320011003700e20f50000900320019
:100be000e30f50000a0032000c00370042c2a90097
:100bf0004302a8000900370042c2a9004302a9002d
:100c00000600370042c2a8004302a80003003700d4
:100c100042c2a8004302a900000000000080fa00c0
:100c2000000006000200fa00004f78001e80fb0062
:100c30004012880000000000001280006100600087
:100c40000000e000fcff320040128000004078000d
:100c50000080fa00000006000000fa004822ef00c1
:100c60000000000000128000610060000000e00051
:100c7000fcff320040128000004078000080fa0043
:100c8000000006000800fa008e81e8008009780064
:100c900064004700010878006600470002087800f9
:100ca0000e80e800100078008000eb00010878005a
:100cb00064004700100f7800040037001e00780021
:100cc00010407800d7ff07001e0fe80066004700bd
:100cd0001000780000f0a7000000ea000000ea0021
:100ce0004f00de0000407800e600470091007800e9
:100cf0000101e900e6004700820878000004e000f6
:100d0000eeff3a000e80e80010007800110020008d
:100d1000010878000080fa00000006000200fa00d6
:100d2000000f78009e007800814088000080fa0063
:100d3000000006000000fa000080fa000000060033
:100d40000000fa0062c2a9006302a8006342a90081
:100d500062a2a8001113800030fe2f000080600006
:100d60000040a0001013880011138000c0ff2f0066
:100d7000008060000010a000101388006362a900ca
:100d80006382a90061e2a8000080fa00000006006a
:100d90000200fa00004f78001e80fb00401388001c
:100da0000000000000138000610060000000e0000f
:100db000fcff320040138000004078000080fa0001
:100dc000000006000000fa006822ef0000000000aa
:100dd00000138000610060000000e000fcff3200b2
:100de00040138000004078000080fa0000000600f8
:100df0000000fa00020007000080fa000000060070
:100e00000000fa002143a8002183a90001198000f5
:100e1000f0cf2f00008060000019880001198000c9
:100e2000f0f12f00008060000060a0000019880031
:100e30002043a800111b8000f0ff2100008060000b
:100e4000101b88002343a80011198000f0cf2f0049
:100e500000806000101988001119800030fc2f00fc
:100e600000806000101988002223a9002203a90035
:100e7000a0c0b30024e3b70021198000f00f2e00ba
:100e80000080600000c0a000201988009119800037
:100e900080ff2f00008060003000b30090198800b0
:100ea00029e3a90028e3a9004119800000fe2f00d2
:100eb00000806000401988003023ef003003a80054
:100ec0000080eb00501988000080eb00601988005a
:100ed0002c03a900407820000500070085a0a90088
:100ee00095a0a80021e3a8000080fa0000000600f9
:100ef0000200fa00000f78009e0078009140880000
:100f00000080fa00000006000000fa000080fa00ed
:100f1000000006000000fa006143a900011b8000e8
:100f2000f0cf2f0000806000001b8800011b8000b4
:100f3000000e200001007000001b88006043a80024
:100f40006183a900111b8000f0ff21000080600078
:100f5000101b88006343a800111b8000f0cf2f00f6
:100f600000806000101b8800111b800030fc2f00e7
:100f700080806000c002200001007000101b88000b
:100f80006223a90030c1b30064e3b700211b8000d5
:100f9000f00f2e008080600000a020000100700093
:100fa000201b8800911b800080ff2f0000806000c4
:100fb0003000b300901b880069e3a90068e3a90032
:100fc000411b800000ff2f0000806000401b880054
:100fd000311b8000f09f2f0000806000301b8800d4
:100fe0006703a900311b800090ff2f000080600084
:100ff000301b88006603a900f00e2000801b8800cb
:101000006c03a9006c23a9006c43a9006c63a900c0
:101010006c83a9006ca3a9006cc3a9006ce3a800b1
:101020006d03a8006d23a8006d43a8006d63a800a0
:101030006d83a8006da3a8006dc3a8006de3a80090
:1010400085a0a90095a0a90021e3a9000080fa00cd
:10105000000006000000fa00020007000080fa000d
:10106000000006000000fa0081208000f0f32f004d
:1010700000806000802088008120800000fc2f001c
:10108000008060008020880013c5a900912880009e
:10109000f08f2f00008060009028880012e5a900e2
:1010a00012c5a9009128800070fc2f00008060000c
:1010b000902888009128800080ff2f000080600029
:1010c000902888001424ef00c1208000f0ff230046
:1010d00000806000c0208800c1208000f0ff2c004c
:1010e00000806000c0208800c1208000f03f2f00f9
:1010f00000806000c0208800c1208000f0cf2f0059
:1011000000806000c0208800c1208000f0f32f0024
:1011100000806000c0208800c1208000f0fc2f000b
:1011200000806000c0208800c120800030ff2f00b8
:1011300000806000c0208800c1208000c0ff2f0018
:1011400000806000c0208800d1208000f0ff2300d4
:1011500000806000d0208800d1208000f0ff2c00ab
:1011600000806000d0208800d1208000f03f2f0058
:1011700000806000d0208800d1208000f0cf2f00b8
:1011800000806000d0208800d1208000f0f32f0084
:1011900000806000d0208800d1208000f0fc2f006b
:1011a00000806000d0208800d120800030ff2f0018
:1011b00000806000d0208800d1208000c0ff2f0078
:1011c00000806000d020880001218000f0ff200016
:1011d000008060000021880001218000f00f2f00b6
:1011e000008060000021880001218000f0f02f00c5
:1011f00000806000002188000121800000ff2f0096
:10120000008060000021880011218000f0ff200094
:10121000008060001021880011218000f00f2f0055
:10122000008060001021880011218000f0f02f0064
:1012300000806000102188001121800000ff2f0035
:1012400000806000102188000080fa000000060085
:101250000000fa000080eb00601988000080eb00bd
:10126000501988000080eb00601b8800c1e2a800d4
:10127000c1c2a800c1a2a800c182a800c142a800a2
:10128000c122a800c0e2a800c0c2a800c0a2a90054
:10129000c082a900c062a900c042a900c022a90062
:1012a000c002a900c7e2a800c7c2a800c7a2a80040
:1012b000c782a800c762a800c742a800c722a8002a
:1012c000c702a800c6e2a800c6c2a800c6a2a8001d
:1012d000c682a800c662a800c642a800c622a8000e
:1012e000c602a800cde2a800cdc2a800cda2a800e9
:1012f000cd82a800cc82a800cc62a800cc42a80075
:10130000cc22a800d3e2a800d3c2a900d3a2a9008e
:10131000d382a900d362a800d342a800d322a80098
:10132000d302a800d2e2a900d2c2a900d2a2a90089
:10133000d282a900d262a900d242a900d222a90079
:10134000d202a900d8e2a900d8c2a900d8a2a90057
:10135000d882a900d862a900d842a900d822a90041
:10136000d802a900dfa2a900df82a900df02a8003d
:10137000dee2a900dec2a900dea2a800de82a8008b
:10138000de62a900de42a800de22a800de02a8007c
:10139000e5e2a800e5c2a800e5a2a800e582a90050
:1013a000e522a900e502a800e4e2a900e4c2a90040
:1013b000e462a800e442a800e422a800e402a80035
:1013c000c422ef00ca22ef00d022ef00d622ef00a5
:1013d000dc22ef00e222ef00e822ef00c402a800c6
:1013e000c422a800c442a800c462a800c482a80005
:1013f000c4a2a800e382a800e922a8000080fa00a5
:10140000000006000000fa008220a8008680a900e3
:101410009680a8000080fa00000006000000fa0094
:1014200003000700390007000080fa0000000600f2
:101430000000fa000421ef000021ef0021088000e5
:10144000f0fc2f00008060000040a0002008880011
:1014500080382100100888009460a8008460a900ea
:1014600021058000f0ff28000080600000c0a0007f
:101470002005880000a520000300070005e1a80062
:101480000080fa00000006000200fa00000f780059
:101490009e007800014088000080fa0000000600ed
:1014a0000000fa000080fa00000006000000fa00c8
:1014b0001021ef000621ef0081088000f0fc2f00d2
:1014c000008060000040a00080088800401f2000cd
:1014d0006008880000a820000300070011e1a800b0
:1014e0000080fa00000006000200fa00000f7800f9
:1014f0009e007800114088000080fa00000006007d
:101500000000fa000080fa00000006000000fa0067
:101510001221ef0091088000f0fc2f000080600095
:101520000040a000900888000a21ef00c05d200064
:101530007008880040ab2000050007009500a90056
:101540008500a90013e1a8000080fa000000060051
:101550000200fa00000f78009e0078002140880009
:101560000080fa00000006000000fa000080fa0087
:10157000000006000000fa003a21ef00d1098000c7
:101580000003200001007000d00988003021ef0026
:1015900090d02300b009880060ae2000050007004d
:1015a0009a60a8008a60a9003be1a8000080fa00c8
:1015b000000006000200fa00000f78009e0078008c
:1015c000314088000080fa00000006000000fa00a8
:1015d0000080fa00000006000000fa000700070083
:1015e0001bff07008dff070001fe070051fd0700ec
:1015f00098fe07000080fa00000006000000fa00d4
:1016000060022000303a8800213a8000f0f32f0079
:1016100000806000203a8800213a800000fe2f0000
:1016200000806000203a88004827ef0040a7a9000a
:1016300040c7a9004087a900320020008007200091
:10164000a109200033742000804978008149780086
:1016500082497800120020006004200071052000fb
:1016600023742000804978008149780082497800fd
:1016700000000000113a8000000027008080600018
:1016800000002300808f5000faff3a0000000000a5
:10169000113a800000022000008060000000e0009d
:1016a000fbff32000080fa00000006000000fa0094
:1016b0008421ef008461a9008221ef008021ef00e6
:1016c000210c800080ff2f00008060006000b300cc
:1016d000200c88000080fa00000006000000fa00dc
:1016e000210c800080ff2f0000806000200c88000b
:1016f0000080fa00000006000200fa00000f7800e7
:101700009e007800110c88000080fa00000006009e
:101710000000fa008a21ef008a61a900510c8000c4
:1017200080ff2f00008060006000b300500c880034
:101730008821ef008621ef000080fa0000000600fb
:101740000000fa00510c800080ff2f000080600034
:10175000500c88000080fa00000006000000fa002b
:10176000504080006140800061004000e0804800ff
:1017700050408800614088000080fa0000000600a8
:101780000000fa00e0ba20003fff07000080fa00e6
:10179000000006000000fa008fff0700f8ff0700b6
:1017a0000080fa00000006000000fa00f9ff0700c0
:1017b0002016800000407800614060000080fb003f
:1017c000404088000828ef00feff37000000fa00c4
:1017d000020007000080fa00000006000000fa0086
:1017e00040c02000020007000080fa000000060050
:1017f0000200fa00000f78009e007800a1408800e7
:101800000080fa00000006000000fa000080fa00e4
:10181000000006000000fa000080fa000000060048
:020000040000fa
:101820001208000002000000000000000e08000086
:101830000400000000000000000800000800000094
:101840000000000008080000060000000000000082
:1018500016080000b004000000000000140800009a
:0c1860000200000000000000000000007a
:020000040000fa
:10186c000000fa00d782a800d7a2a800d7c2a9000e
:10187c003421ef0060092000c00988008a80a9008b
:10188c009a80a8003de1a9000080fa000000060043
:020000040000fa
:0200000401f009
:04000c00fbff0000f6
:020000040000fa
:0200000401f009
:040010007dff000070
:020000040000fa
:0200000401f009
:040014007fffff006b
:020000040000fa
:0200000401f009
:04001c00deff000003
:00000001FF
